:100000000C9466050C94AD050C94AD050C94131975
:100010000C94AD050C94AD050C94AD050C94AD0598
:100020000C94AD050C94AD050C94922C0C94652D9C
:100030000C9423270C94AD050C94AD050C94AD05E0
:100040000C94AD050C94AD050C94AD050C94AD0568
:100050000C94AD050C948B270C94AD050C94AD0558
:100060000C94AD050C94AD050C94AD050C94AD0548
:100070000C94AD050C94AD050C94AD050C94AD0538
:100080000C94AD050C94AD050C94AD050C94AD0528
:100090000C94AD050C94AD050C94AD050C94AD0518
:1000A0000C94AD050C94AD050C94AD050763423678
:1000B000B79BD8A71A39685618AEBAAB558C1D3CF9
:1000C000B7CC5763BD6DEDFD753EF6177231BF00BD
:1000D0000000803F05A84CCDB2D44EB93836A902F5
:1000E0000C50B9918688083CA6AAAA2ABE00000036
:1000F000803F456E61626C652057494E206D6F648C
:10010000650D0A00456E61626C65204D4143206DAE
:100110006F64650D0A0070726F636573735F72655B
:10012000636F72645F757365723A206B6579636F94
:100130006465203D202535752C206576656E742E0E
:1001400070726573736564203D2025752C2065767B
:10015000656E742E74696D65203D202537752C20E1
:100160007461702E636F756E74203D202532752C7E
:10017000207461702E696E74657272757074656436
:10018000203D2025750A00000029001E001F0020C8
:100190000021002200230000002B0014001A000898
:1001A000001500170000000000E000040016000722
:1001B0000009000A0000000000E1001D001B00060D
:1001C000001900050046000000E000E200E3009195
:1001D0000000002C432C1889002E002D002700263B
:1001E0000025002400230030002F00130012000C13
:1001F0000018001C0000003200340033000F000E15
:10020000000D000B0000008700380037003600109A
:100210000011002A004C000000E400E600E7009016
:100220000000002C422800000029001E001F0020B2
:100230000021002200230000002B0014001A0008F7
:10024000001500170000000000E000040016000781
:100250000009000A0000000000E1001D001B00066C
:10026000001900050046000000E000E300E2008BFA
:100270000000002C43350089002E002D00270026A9
:100280000025002400230030002F00130012000C72
:100290000018001C0000003200340033000F000E74
:1002A000000D000B000000870038003700360010FA
:1002B0000011002A004C000000E4006500E7008AFD
:1002C0000000002C422800000001003A003B003CE6
:1002D000003D003E003F0000000100010001000160
:1002E0000001000100000000000100010001000108
:1002F00000010001000000000001000100010001F8
:1003000000010001000100000001000100010001E6
:100310000000002C4401000100450044004300425D
:1003200000410040003F000100010001004D004B72
:10033000004E004A0000000100010001004F005281
:100340000051005000000001000100010001000107
:100350000001000100010000000100010001000196
:1003600000000001000100000001003A003B003CD9
:10037000003D003E003F00000001001E001F002065
:100380000021002200000000000100010001000126
:100390000001000100000000000100010001000157
:1003A0000001000100010000000100010001000146
:1003B000000000010001000000450044004300422D
:1003C00000410040003F00010001002700260025F9
:1003D000002400230000000100010001002300228E
:1003E0000021000100000001000100010020001FA9
:1003F000001E00010001000000010001003700277D
:100400000000002C4401000000085D010001000113
:1004100000010001000100000001000100010001D5
:1004200000005C010000000000010001000100016B
:100430005C0100010000000000010001000100015A
:1004400000010001000100000001000100010001A5
:1004500000000001000100095D0100010001000130
:100460000001000100010001000100C25CC95CC77D
:100470005CC55CC35C0000010001000100CA5CC8EF
:100480005CC65CC45C0000010001000100010001C9
:100490000001000100010000000100010001000155
:1004A0000000000100010044454255473A206469BC
:1004B0007361626C65642E0A0044454255473A20D8
:1004C000656E61626C65642E0A000A002530386230
:1004D000003A200025303258000A722F6320303154
:1004E0003233343536370A007267626C6967687474
:1004F00020616E696D6174696F6E207469636B2031
:100500007265706F727420746F20736C6176650A07
:10051000007267626C696768742074696D65722027
:1005200064697361626C652E0A007267626C696748
:1005300068742074696D657220656E61626C6564B3
:100540002E0A007267626C69676874207365742094
:10055000687376205B4E4F454550524F4D5D3A20B3
:1005600025752C25752C25750A007267626C6967E4
:1005700068742073657420687376205B454550521B
:100580004F4D5D3A2025752C25752C25750A007276
:1005900067626C69676874207261696E626F772048
:1005A000736574206873763A2025642C25642C25A5
:1005B000642C25750A007267626C69676874206430
:1005C000697361626C65205B4E4F454550524F4DDB
:1005D0005D3A207267626C696768745F636F6E660C
:1005E00069672E656E61626C65203D2025750A0085
:1005F0007267626C696768742064697361626C65B4
:10060000205B454550524F4D5D3A207267626C69E0
:100610006768745F636F6E6669672E656E61626C92
:1006200065203D2025750A007267626C69676874F1
:1006300020656E61626C65205B4E4F454550524FA0
:100640004D5D3A207267626C696768745F636F6EB4
:100650006669672E656E61626C65203D2025750AAE
:10066000007267626C6967687420656E61626C65B0
:10067000205B454550524F4D5D3A207267626C6970
:100680006768745F636F6E6669672E656E61626C22
:1006900065203D2025750A007267626C6967687481
:1006A00020746F67676C65205B454550524F4D5D08
:1006B0003A207267626C696768745F636F6E66691F
:1006C000672E656E61626C65203D2025750A00729B
:1006D00067626C69676874206D6F6465205B4E4F5C
:1006E000454550524F4D5D3A2025750A00726762AC
:1006F0006C69676874206D6F6465205B4545505276
:100700004F4D5D3A2025750A007267626C69676813
:10071000745F696E6974207267626C696768745F80
:10072000636F6E6669672E6D6F6465203D20302EA5
:100730002057726974652064656661756C742076F3
:10074000616C75657320746F20454550524F4D2E76
:100750000A007267626C696768745F696E69742009
:100760006565636F6E666967206973206E6F7420BC
:10077000656E61626C65642E0A007267626C6967FF
:1007800068745F696E6974207374617274210A0001
:100790007267626C696768745F696E69742063610F
:1007A0006C6C65642E0A007267626C696768745FBE
:1007B000636F6E6669672E7370656564203D2025E2
:1007C000640A007267626C696768745F636F6E6663
:1007D00069672E76616C203D2025640A007267628D
:1007E0006C696768745F636F6E6669672E736174A6
:1007F000203D2025640A007267626C696768745F37
:10080000636F6E6669672E687565203D2025640AF2
:10081000007267686C696768745F636F6E666967AA
:100820002E6D6F6465203D2025640A007267626C3E
:10083000696768745F636F6E6669672E656E616273
:100840006C65203D2025640A007267626C696768E8
:10085000745F636F6E66696720454550524F4D3A2D
:100860000A0000047F3F1F643214643214783C1E77
:100870001E140A05FFAA7F55400605040302010065
:100880000708090A0B0C0D0001010101010101011A
:100890000102020202020202020203030303030333
:1008A0000303040404040404040505050505060601
:1008B00006060607070707070808080809090909BF
:1008C0000A0A0A0B0B0B0C0C0C0D0D0D0E0E0E0F65
:1008D0000F0F1010111111121213131414151516F5
:1008E000161717181819191A1A1B1B1C1D1D1E1E66
:1008F0001F202021222223242425262627282929B7
:100900002A2B2C2D2D2E2F303132323334353637E1
:1009100038393A3B3C3D3E3F4041424344454647DF
:1009200048494A4C4D4E4F50515354555658595AB8
:100930005B5D5E5F616264656668696B6C6D6F705C
:1009400072737577787A7B7D7E8082838587888ACB
:100950008C8E8F91939596989A9C9EA0A2A3A5A702
:10096000A9ABADAFB1B3B5B7BABCBEC0C2C4C6C9FE
:10097000CBCDCFD1D4D6D8DBDDDFE2E4E7E9EBEEB7
:10098000F0F3F5F8FAFDFF0A002530325820006B2D
:100990006579626F6172645F7265706F72743A201C
:1009A000000A0025303258006B6579626F6172640D
:1009B0005F7365745F6C65643A20005B735D004B28
:1009C0006579626F6172642073746172742E0A00BB
:1009D0005B575D005B535D005B525D005B445D00F7
:1009E0005B435D00040330000000160341006E000D
:1009F000670065006C0069006E006100370032001E
:100A000000000E0363006C006F006D00690065005C
:100A100000000403090409024200020100A0FA09CF
:100A2000040000010301010009211101000122401D
:100A3000000705810308000A090401000203000001
:100A40000009211101000122220007058203200074
:100A50000107050203200001120110010000000837
:100A60003196720A0200010203010631FF0974A1E6
:100A7000010975150026FF00952075088102097689
:100A8000150026FF00952075089102C00501090692
:100A9000A101050719E029E7150025019508750151
:100AA00081029501750881010507190029FF1500CC
:100AB00026FF00950675088100050819012905958E
:100AC0000575019102950175039101C011241FBEA6
:100AD000CFEFDAE0DEBFCDBF04B603FE27C08091C2
:100AE0008B0290918C02A0918D02B0918E02873082
:100AF000904BA740B04BD1F410928B0210928C0215
:100B000010928D0210928E0214BE84B7877F84BF2C
:100B10000FB6F894A895809160008861809360007A
:100B2000109260000FBEE0E0F8E3099511E0A0E04C
:100B3000B1E0E0E0F6E602C005900D92A636B107FE
:100B4000D9F722E0A6E6B1E001C01D92AB38B207AA
:100B5000E1F70E94A3290C94FE320C940000FF934D
:100B6000EF93E0916601F0916701309709F00995E4
:100B7000EF91FF910895FC018591803011F0EFDF36
:100B8000FBCF0895FF27E0E230E247FF0CC041951C
:100B900097FF09C0EDE26095709580959095611D75
:100BA000711D811D911D27FF02C0219530E350E288
:100BB000AA27660F771F881F991FAA1FA41710F076
:100BC000A41B63955A95A9F7AA3008F0A95FA05D08
:100BD000AF93F395611571058105910541F7ED32EC
:100BE00011F4EF93F395F21718F43F93F395FBCFBD
:100BF0008F91B5DFFA95E1F70895E991F991859123
:100C0000803021F0853219F0AADFF9CF089520E075
:100C1000E89455915532C1F3503311F468945591CD
:100C20005A3348F4505390F3220F022E220F220F12
:100C3000200D250FF4CF0EF421958991999153360B
:100C400019F3533729F1533559F1BC0188279927F6
:100C5000E8945C3621F489919991689455915436C1
:100C600039F446EF7EF077FF0DC08FEF9FEF0AC09B
:100C700055374AE039F0583540E121F0523642E02C
:100C800009F00895FF93EF937DDFEF91FF91B7CFC8
:100C9000FF93EF93FC0181918030B9F360DFFBCFCC
:100CA000FF93EF9368DFF1CFDF93CF93CDB7DEB73C
:100CB0002596A3DFCF91DF9108950F931F93CF93D4
:100CC000DF938C01EB018091350280FF20C08D8184
:100CD00081701F928F938D8182958F701F928F9359
:100CE0008C818F938B818F938A811F928F931F9317
:100CF0000F9386E191E09F938F930E9454068DB7E6
:100D00009EB70C960FB6F8949EBF0FBE8DBF0830ED
:100D10009DE5190749F009301D45A9F081E0DF91F3
:100D2000CF911F910F9108958A818823B9F3809103
:100D3000350280FF04C084E091E00E94BB0580E0A2
:100D40000E94ED06EBCF8A81882341F38091350222
:100D500080FF04C082EF90E00E94BB0581E0F0CFED
:100D600081E008950C945D061F93CF93DF9300D02C
:100D700000D01F92CDB7DEB749835A836B83209191
:100D8000B50189819A8121111BC06623A9F00E94B7
:100D90006A24182F682F89819A810E941024698102
:100DA0007A81812F0F900F900F900F900F90DF910D
:100DB000CF911F910C94E1090E943F24182FEFCF8F
:100DC0000E946A2469817A81EDCFFC0140815181C2
:100DD0006281738184810C94B406CF93DF93C1E068
:100DE000D0E002C0CC0FDD1F8A95E2F78C2F0E9465
:100DF000E125BE0190E080E0DF91CF910C941223B9
:100E00000E94CE25811102C00E9470260C94970C7E
:100E10000C949A0C08950C940A0781E008950C94A0
:100E20000D07CF93C82F0E940B078C2FCF910C94E6
:100E30000F0708950E94001F0E9419072FEF84E3F7
:100E40009CE0215080409040E1F700C0000087E71F
:100E500097E790930108809300080C94B1270F93B3
:100E60001F93CF93DF938C010E94E506EC01B8013C
:100E70000E94B206882309F4F9C0B801CE010E948D
:100E80001C18882309F4F2C0CB3C8CE5D80709F480
:100E900038C108F04EC0C33CECE5DE0709F409C1D7
:100EA00040F5C6318CE5D807A8F4C2309CE5D907D7
:100EB00008F09CC0C115ECE5DE0709F4D2C0C130D2
:100EC000DC4509F4D9C0C801DF91CF911F910F9182
:100ED0000C94B006C6318CE5D80709F44EC2C23C6A
:100EE000DC4589F7F80182818111C0C00E942B1670
:100EF000BDC0F8018281C73CFCE5DF0709F4F2C000
:100F000060F4C53CECE5DE0709F4E7C008F4DCC09A
:100F10008111ACC00E946112A9C0C93C9CE5D907EF
:100F200009F4EAC008F4E3C08111A0C00E949D1238
:100F30009DC0C33DFCE5DF0709F421C190F5F80130
:100F40008281CF3CFCE5DF0709F4F0C0A8F4CD3C7A
:100F5000ECE5DE0709F4E3C008F4DBC0882309F4FC
:100F600085C00E941410823028F00E941410853031
:100F700008F4B0C082E0D7C0C13D9CE5D90709F4B0
:100F8000F0C008F4E0C0882309F470C00E94141077
:100F9000853128F00E941410873108F49BC085E148
:100FA000C2C0CD3DFCE5DF0709F407C1A0F4C53D93
:100FB0009CE5D90709F4FAC008F4E8C0CC3DDC454B
:100FC00009F081CFF8018281882309F44FC080E0C5
:100FD0000E945A2A4BC0CE3D8CE5D80709F462C066
:100FE000CE018A5F9C45099708F06DCFF801828198
:100FF000882309F468CF0E94CE25811102C00E9487
:1010000070260E94E62590937D0280937C02C03179
:10101000FCE5DF0709F47EC108F00AC1C8309CE591
:10102000D90709F469C108F0DDC0C430FCE5DF0769
:1010300009F454C108F0C8C0C2309CE5D90709F4CE
:1010400047C180917C028260C330DC4509F443C112
:1010500080917C0290917D020E94F4250E94001FE5
:1010600005C0F801828181110E941A0780E0DF919A
:10107000CF911F910F910895F80182818823B1F3D8
:1010800090913502892F8E7F90FF81608093350289
:1010900080FF05C089EB94E00E94BB05E7CF87EA9B
:1010A00094E0FACFF8018281882301F30E94702630
:1010B000DDCFF80182818823C9F20E94FF24827269
:1010C00049F00E944B15D2CF882381F20E94FF2461
:1010D0008272B9F30E943E15C9CF8111C7CF0E9419
:1010E0005412C4CF8111C2CF0E947012BFCF8111A0
:1010F000BDCF0E947F12BACF8111B8CF0E948E124D
:10110000B5CFF8018281882309F4B0CF0E941C106A
:10111000ADCF882309F4AACF0E942D10A7CF882332
:1011200009F4A4CF81E00E944E15A0CF882309F4D2
:101130009DCF0E941410863020F00E941410883039
:1011400048F286E0F0CF882309F490CF0E94141073
:10115000893028F00E9414108E3008F4BBCF89E04B
:10116000E2CF882309F482CF0E9414108F3028F038
:101170000E941410843108F4ADCF8FE0D4CFF80171
:101180008281882309F472CF88E1CDCFF801828172
:10119000882309F46BCF0E941410893128F00E9433
:1011A0001410823208F496CF89E1BDCFF801828114
:1011B000882309F45BCF83E2B6CFF80182818823CC
:1011C00009F454CF82E004CF80917C028061C63064
:1011D000FCE5DF0709F47FC008F484C080917C023D
:1011E000806279C080917C028D7FCC309CE5D907EC
:1011F00009F471C058F4CA30FCE5DF0709F486C071
:1012000008F47EC080917C028E7F65C080917C0254
:10121000877FCE309CE5D90709F45DC080917C02C0
:10122000CF30DC4508F481C080917C028F7E53C0B2
:10123000CB3FFCE5DF0709F459C020F5C3319CE53D
:10124000D90709F46FC078F4C131FCE5DF0709F470
:1012500065C0C231DC4509F0FBCE0E94001F8091C1
:101260007C028F7738C0C5319CE5D90709F464C08A
:1012700008F478C080917D02CA3FDC4509F0E8CED1
:10128000816037C0CF3F8CE5D80709F450C088F49F
:1012900080917D028D7FCD3FECE5DE0751F180919D
:1012A0007D02CE3FDC4508F445C080917D0282601E
:1012B000E7CFC1308DE5D80709F45DC008F448C018
:1012C00080E0C230DD4509F0C3CE0E947226C0CE58
:1012D00080917C02816080937C02BACE80917C02F6
:1012E0008460F9CF80917C028860F5CF80917D0287
:1012F000826080937D02ACCE80917C028064EBCFD3
:101300000E94001F80917C028068E5CF80917C0262
:101310008860E6CF80917C028F7DDDCF80917C025A
:101320008F7BD9CF80917C02877F8B7FD4CF8091B8
:101330007D028D7F8E7FDDCF80917C0282FB99279D
:1013400090F921E0922790FB82F990FB83F9C3CFBB
:1013500080917D02982F909591708E7F892B90FBC4
:1013600081F9C7CF0E94001F90917C02892F97FBC3
:1013700087F98058B0CF81E0A8CF0E94FF24F80100
:101380009281992381F08A7A91E009F490E0909318
:101390006801811106C089E20E94DA240E944E256C
:1013A00065CE85E3F9CF80916801811104C089E29F
:1013B0000E94E124F3CF85E3FBCF90E080E0089525
:1013C0000895E72FF0E09AE0899FE00DF11D1124C8
:1013D00083E0EE0FFF1F8A95E1F7E60FF11DEE0F98
:1013E000FF1FE957FE4F859194910895FC01EE0F80
:1013F000FF1FE653FB4F859194910895CF93DF93A0
:101400000E94E1090E94B80BEC018115904508F09B
:1014100043C0C11580E4D80708F017C1C83ED10504
:1014200028F5C03ED10508F0A3C0C83AD10580F424
:10143000C53AD10508F092C0C130D10509F498C071
:1014400020F0C430D10508F093C0D0E0C0E090C0D7
:10145000CF3BD10508F490C0CE01805C9109C03C1F
:10146000D10598F30E94F609EC0182C0C11520E273
:10147000D20750F4C11581E0D80708F079C0C03F09
:10148000D10518F3D06574C0C11520E3D20708F068
:10149000D2C0CE019F70E6CFC11585E5D80760F5B3
:1014A000C11524E5D20708F0FEC0C11582E5D807B2
:1014B00050F4C11521E5D20708F4CAC0DC2FCC27AF
:1014C000C16FD06A55C09C2F969596959E0123704A
:1014D0003327C115D34508F0D7C0C1E0D0E002C022
:1014E000CC0FDD1F2A95E2F720E2929FC001112464
:1014F000C82BD92BDC683CC0C11529E5D207A8F45C
:10150000C11588E5D80708F0D3C0C11526E5D20774
:1015100008F09BCF8C2F0E94530CC82FD0E0DC2FFB
:10152000CC27CC27DF71D06223C0C1158AE5D8074C
:1015300008F4C3C0CE0190568115904208F085CFC3
:101540008D2F8F710E94530CDD27D06290E0982F71
:10155000882788279F71C82BD92B0AC0C53AD10587
:1015600009F4BBC0C63AD10509F4BAC0C3E8D0E457
:10157000CE01DF91CF910895C83AD10509F4B3C0E7
:10158000C93AD10509F4B2C0CA3AD10509F4B1C0CB
:10159000CB3AD10509F4B0C0CC3AD10509F4AFC0BB
:1015A000CB3BD10509F4AEC0CC3BD10509F4ADC0AD
:1015B000CD3AD10509F4ACC0C03BD10509F4ABC0AC
:1015C000CE3AD10509F4AAC0CF3AD10509F4A9C091
:1015D000C13BD10509F4A8C0C23BD10509F4A7C09D
:1015E000C33BD10509F4A6C0C43BD10509F4A5C08D
:1015F000C53BD10509F4A4C0C63BD10509F4A3C07D
:10160000C73BD10509F4A2C0C83BD10509F4A1C06C
:10161000C93BD10509F4A0C0CD3BD10509F49FC059
:10162000CE3BD10509F49EC0CA3BD10509F09DC04F
:10163000CAE2D6E49DCFCE019927D3FF03C0EC01C7
:10164000D86C96CFEC01D06C93CFDF70D06A90CF7E
:10165000CE01F4E096958795FA95E1F783709C2F7B
:10166000937021E030E002C0220F331F9A95E2F719
:101670003C68382BC695C695C37080E2C89FE001D0
:101680001124C22BD32B74CFC1E0D0E002C0CC0F09
:10169000DD1F2A95E2F720E2929FC0011124C82B9A
:1016A000D92BDA6865CFDC2FCC27C46FD06A60CF26
:1016B000DC2FCC27C06FD06A5BCF8C2F8F700E943D
:1016C000530C34E0D695C7953A95E1F7CF70D0E04A
:1016D000DC2FCC27D069C82B4BCFC1E8D0E448CF52
:1016E000C2E8D0E445CFC2EED4E442CFC9EED4E4A0
:1016F0003FCFCAEED4E43CCFC5EBD4E439CFC6EB40
:10170000D4E436CFC3EBD4E433CFC4EBD4E430CF4E
:10171000C7EBD4E42DCFCCECD4E42ACFCDECD4E489
:1017200027CFC3E8D5E424CFCAE8D5E421CFC2E966
:10173000D5E41ECFC4E9D5E41BCFC1E2D6E418CF6F
:10174000C3E2D6E415CFC4E2D6E412CFC5E2D6E4B4
:101750000FCFC6E2D6E40CCFC7E2D6E409CFCFE67E
:10176000D4E406CFC0E7D4E403CFC0E0D4E400CF94
:1017700082389105B1F1B0F48133910509F471C05B
:1017800048F48932910509F467C08A32910509F459
:101790006DC008958533910509F459C089339105C9
:1017A00001F10895833E9105A9F138F4803E910539
:1017B000F9F0823E910549F10895863E9105A9F11F
:1017C000873E9105C9F1843E910519F520917D026E
:1017D00021FF1FC080917C0284FD14C087EE90E041
:1017E000089520917C022370A1F080EE90E008958E
:1017F00020917C0220FD3FC030917D0230FF09C066
:1018000024FF3CC090E080E0089520917C0222FDFE
:10181000F7CF089520917C0222FD33C030917D02E4
:1018200030FDE3CF24FDEECFF4CF20917C0223FFE7
:10183000F0CF24FDE7CFD2CF20917C0223FD24C03E
:1018400030917D0231FFEECF84EE90E0089520913B
:101850007C0225FD1CC0089520917C0225FD1AC044
:10186000089520917C0226FD18C0089520917C02E5
:1018700026FD16C0089589E390E0089583EE90E078
:10188000089582EE90E0089586EE90E0089589E252
:1018900090E0089585E390E008958AE290E008954D
:1018A00081E390E0B6CF90917C0292FF06C0282F92
:1018B00028712830F9F4877F846093FF06C0282FB1
:1018C00028712831F1F4877E846120917D0220FF08
:1018D00006C0382F38713830D9F4877F816021FFF6
:1018E00006C0282F28712831D1F4877E816194FDAC
:1018F000877E0895282F24712430F9F68B7F886025
:10190000DCCF282F2471243101F78B7E8861DDCF55
:10191000382F3171313019F78E7F8860E0CF282F52
:101920002171213121F78E7E8861E1CF08950C94D9
:10193000960C08950C94990C0895E82FF0E0E15965
:10194000FE4F80810895CF92DF92EF92FF920F9326
:101950001F93CF93DF9389ED94E00E94BB058FE640
:10196000E82E81E0F82ED0E0C0E094EDC92E94E09E
:10197000D92E0CEC14E0DF93CF93DF92CF920E942C
:10198000540681ED94E00E94BB05F70181917F012F
:101990000E94B6251F928F931F930F930E945406A7
:1019A0008AEC94E00E94BB0521968DB79EB70896FD
:1019B0000FB6F8949EBF0FBE8DBFCA30D105D9F6C1
:1019C000DF91CF911F910F91FF90EF90DF90CF901B
:1019D0000895CF93DF930E94460E8091000180917D
:1019E000000195E0811190E09093480285E0891B09
:1019F00080934702A6E3B1E061E070E08D91E82FAB
:101A0000E295EF70F0E041A18F709B0101C0220FC1
:101A10008A95EAF7922F9095942391A382A1822B25
:101A200082A381E0AB33B80749F7AEE2B1E046E309
:101A300051E0C1E0D0E08D91E82FE295EF70F0E049
:101A400061A18F709E0101C0220F8A95EAF7922F43
:101A50009095962391A382A1822B82A34A175B07BC
:101A600051F7EFE6F1E089E791E011928E179F07B9
:101A7000E1F785E00E94F10DDF91CF910C94000712
:101A8000AF92BF92CF92DF92EF92FF920F931F938C
:101A9000CF93DF93AAE6B1E046E351E0A12C61E0E9
:101AA00070E03C911C92EA018991AE01E82FE29529
:101AB000EF70F0E091A18F708B0101C0000F8A954B
:101AC000EAF7892F802B81A392A1B02EB0949B219D
:101AD00092A3D0EADA95F1F7DEE2ED2ED1E0FD2E09
:101AE00090E080E0E70129917E01C22EC294CFE010
:101AF000CC22D12CE601C8A0D12C2F7002C0D594E5
:101B0000C7942A95E2F7C0FC36C06B01082E01C0CD
:101B1000CC0C0A94EAF72C912C292C93019688304E
:101B2000910501F781A18B2181A382A1802B82A342
:101B300081E09C91931301C080E0A82A1196D1E026
:101B40004B335D0709F0ADCF6091480270E06159F9
:101B50007E4F2A2D45E08AE691E00E94F20D8A2D03
:101B6000DF91CF911F910F91FF90EF90DF90CF9079
:101B7000BF90AF900895C12CCECFCF930E94400D5F
:101B8000C82F0E94270E882311F18091470290E010
:101B900081599E4F0E94850E811116C08091690166
:101BA0008F5F80936901863050F0E0914702F0E04A
:101BB000E159FE4F108211821282138214820E9418
:101BC00008078C2FCF91089510926901F8CF80916A
:101BD000480290E081599E4F0E94A20E0E949C0CE8
:101BE000F0CF0895FF920F931F93CF93DF938C0153
:101BF000F62ED72FC42F222349F081E080937B015A
:101C00000E94552790937A018093790180917B01FE
:101C10008823A1F08091790190917A010E94612737
:101C2000069760F0EF2DFD2FD801D0E0CD01801B8D
:101C3000910B8C179D0744F010927B01DF91CF919F
:101C40001F910F91FF9008958D918193EFCF809117
:101C50007C01811110C08091D80080618093D800F0
:101C60008AE18A95F1F700C08091D90080FD0AC011
:101C700082E080937C0181E090917C01913009F0B9
:101C800080E0089581E0F5CF0C94270E0E94440E69
:101C9000809300018091000167E0882349F080E093
:101CA0000E944A0F0E94270E882321F00C945C0E9C
:101CB00087E0F6CF0C94620E62E070E081E091E084
:101CC0000C94C01862E070E081E091E00C94C918B7
:101CD0000E947A14882361F084E891E00E948014C5
:101CE00081E090E00E94A219892B11F40C947D14DC
:101CF000089580918301883039F460E084E891E0B0
:101D00000E946D16109283010895CF93DF93D82F10
:101D1000C92F0E94680E90E080E00E94A2190097EF
:101D200079F4ED2FFC2FDC01A258BE4F2C912193AA
:101D3000019685309105B9F781E0DF91CF91089543
:101D400080E0FBCFCF93DF93D82FC92F0E94790E6D
:101D5000ED2FFC2F90E080E02191DC01A258BE4FD6
:101D60002C93019685309105B9F7DF91CF910895B5
:101D7000AF92BF92CF92DF92EF92FF920F931F9399
:101D8000CF93DF939B01E82FF0E0E957F74F311134
:101D90000EC06491762F862FDF91CF911F910F9106
:101DA000FF90EF90DF90CF90BF90AF900895C32F3A
:101DB000D0E0E491FE2FEE2EF12C46E0649FC001AE
:101DC00011240FEF10E0B8010E947B32AB01822F8B
:101DD00090E0880F991F25E5249FB001259F700D85
:101DE0001124861B970B982F990F980FB8016C1B25
:101DF0007D0B6E9DD0016F9DB00D7E9DB00D1124A9
:101E00008B2F939F90011124232F3327B801621B3E
:101E1000730B6E9D90016F9D300D7E9D300D1124D2
:101E2000732F5801A91AB108AC9E6001AD9ED00C69
:101E3000BC9ED00C1124CD2CDD240C191D090E9D47
:101E4000E0010F9DD00D1E9DD00D11244230510593
:101E5000B1F050F44115510571F04130510569F070
:101E60007E2FEB2F832F09C04430510579F050F0BD
:101E700046305105A9F77E2FED2F6E2F8DCF7B2F8A
:101E80008D2FFBCFE32F7B2F8F2FF7CF7D2FEB2FC6
:101E9000FBCF089580939301609315010895CF932C
:101EA000DF93762FE901682F842F0E94B80E798383
:101EB00068838A83DF91CF91089580914902982F9A
:101EC0009E7F29F4817082608093490208958A344C
:101ED000E8F381708864F8CF88E090E00C94BE321B
:101EE000CF92DF92EF92FF926B017C010E945D0F17
:101EF000B701A60188E090E0FF90EF90DF90CF90CF
:101F00000C94DC32E9E4F2E083E0808311828FEF0D
:101F1000828383831482ABE9B1E012968C9112978D
:101F2000836012968C9360817181828193810C947D
:101F3000700F8091350280FF08C089E498E09F937C
:101F40008F930E9454060F900F908091350280FF6E
:101F50000FC08091490281701F928F938CE298E0AC
:101F60009F938F930E9454060F900F900F900F90A5
:101F70008091350280FF0FC08091490286951F92A3
:101F80008F9381E198E09F938F930E9454060F9066
:101F90000F900F900F908091350280FF0EC08091BE
:101FA0004A021F928F9387EF97E09F938F930E942F
:101FB00054060F900F900F900F908091350280FF84
:101FC0000EC080914B021F928F938DED97E09F93EF
:101FD0008F930E9454060F900F900F900F90809156
:101FE000350280FF0EC080914C021F928F9383ECCC
:101FF00097E09F938F930E9454060F900F900F903D
:102000000F908091350280FF0EC080914D021F928B
:102010008F9387EA97E09F938F930E9454060F90C7
:102020000F900F900F9008958091490280FF02C099
:102030008695089580E0089580914D02833018F4CC
:102040008F5F80934D026091490270914A028091A6
:102050004B0290914C020C94700F80914D0288239A
:1020600019F0815080934D026091490270914A02AB
:1020700080914B0290914C020C94700FCF92DF92A2
:10208000EF920F931F93CF93DF93CDB7DEB7AA974D
:102090000FB6F894DEBF0FBECDBF6091150170E0A2
:1020A0008091490280FF36C0E9E7F8E09E012F5F8A
:1020B0003F4F8E01055D1F4FC901A4914A2F50E08B
:1020C000DA01AA0FBB1FA40FB51FA25BBD4FCD90B5
:1020D000DD90EC90D901CD92DD92ED929D0131968B
:1020E000A017B10751F720919301B3E02B9F800D0A
:1020F000911D11240E94A517AA960FB6F894DEBF71
:102100000FBECDBFDF91CF911F910F91EF90DF9068
:10211000CF900895809192019091140123E0829FC5
:10212000F0011124E25BFD4F891708F0BDCF118249
:10213000108212828F5F3396F7CF9091490290FF01
:1021400014C0909192012091140133E0939FF0010B
:102150001124E25BFD4F921710F00C943E10818326
:10216000608342839F5F3396F6CF0895CF93DF93CA
:1021700000D01F92CDB7DEB79091490290FF0AC000
:102180009E012F5F3F4F0E944F0F4B8169818A81D3
:102190000E949D100F900F900F90DF91CF910895A6
:1021A000CF93DF93EC016C8170E090E080E00E94BF
:1021B000623020E030E04FE753E40E94852F2BEDA2
:1021C0003FE049E450E40E948B310E94F8310E94C4
:1021D000FF2F2BE43AE34EE25FE30E94182F20EF3B
:1021E0003BEF48ED52E40E948B310E943130462F84
:1021F000E9E4F2E0628181810E94B6108C818F5FF8
:102200008C83DF91CF910895CF93DF93EC01E9E4C4
:10221000F2E0438162818C810E94B6108C818F5FD5
:102220008C83DF91CF9108950F931F93CF93DF930A
:1022300000D01F92CDB7DEB78C0180918C01811147
:102240000AC09E012F5F3F4F4FEF6FEF0E944F0F6D
:102250008A8180938C01F8018481813069F038F0A3
:1022600040918C01823009F040E080E003C0809111
:102270008C0140E060E004C060918C0140E080E0AF
:102280000E949D10F801848190E0019663E070E067
:102290000E948F3284830F900F900F90DF91CF9127
:1022A0001F910F9108954F925F926F927F928F923C
:1022B0009F92AF92BF92CF92DF92EF92FF920F93D5
:1022C0001F93CF93DF9300D01F92CDB7DEB7182FA7
:1022D000F62E042F722E9091490290FF57C0E92FDD
:1022E000E695AE2FB0E0A05CBE4F8C9180939B0131
:1022F0009E7F923009F05EC09E012F5F3F4F812F7D
:102300000E944F0F4B8169818A810E949D108091AC
:102310004A02811308C080914B028F1104C0809142
:102320004C02801729F080919D01826080939D016D
:1023300010934A02F0924B0200934C02772009F46A
:102340009CC06091490270914A0280914B02909129
:102350004C020E94700F8091350280FF17C080915F
:102360004C021F928F9380914B021F928F9380910A
:102370004A021F928F938AE695E09F938F930E9463
:1023800054060FB6F894DEBF0FBECDBF0F900F906E
:102390000F90DF91CF911F910F91FF90EF90DF9001
:1023A000CF90BF90AF909F908F907F906F905F90F5
:1023B0004F900895823019F400914C02A8CF8630D6
:1023C00019F410914A02A3CF8930D9F3893109F069
:1023D0009ECFE9518E2F8170682E8E2F809581704F
:1023E000E82EE695F0E0EC58F74FC590D490412CDC
:1023F000DD249FE8A92E95E0B92E609113014616C1
:1024000018F00E943E1083CF842C912C8C9CC0012C
:102410008D9C900D9C9C900D112470E00E947B324D
:10242000512E611028C0560E8091350280FF11C0D8
:10243000DF92CF921F92EF921F925F921F924F9264
:10244000BF92AF920E9454060FB6F894DEBF0FBE43
:10245000CDBF20919201820E911C9401220F331F57
:10246000280D391D225B3D4F402F6F2D852D0E9479
:102470004F0F4394C2CF561AD7CF8091350280FFB9
:1024800085CF1F920F931F92FF921F921F9383E499
:1024900095E073CFE9E4F2E09181282F43816281D6
:1024A00088E0890F0C94531181E00C944A12E9E4FE
:1024B000F2E09181282F4381628188EF890F0C948B
:1024C000531181E00C945712E9E4F2E0628128E0B4
:1024D000620F08F46FEF282F438181810C94531110
:1024E00081E00C946412E9E4F2E0628128E0621B6E
:1024F00008F460E0282F438181810C94531181E01E
:102500000C947312E9E4F2E0438128E0420F08F4EE
:102510004FEF282F628181810C94531181E00C943C
:102520008212E9E4F2E0438128E0421B08F440E033
:10253000282F628181810C94531181E00C949112B7
:1025400020E00C945311EF92FF921F93CF93DF93EF
:10255000EC0110E0EE24EA94F12C609113011617BF
:1025600070F00E943E109A818C8190FF27C08F5F8F
:102570008C83DF91CF911F91FF90EF900895209170
:102580009201422F410F5527551FCA019A01220F70
:10259000331F280F391F225B3D4F70E0C7010E9497
:1025A0008F32962F8C8140914C0260914B02199F83
:1025B000800D11240E944F0F1F5FCFCF8150D8CFC5
:1025C0008F929F92AF92BF92CF92DF92EF92FF9243
:1025D0000F931F93CF93DF93EC018A81BB24B394B5
:1025E00080FF02C0BB24BA948C8181110AC081E0B3
:1025F000B8122AC080911301815080938E0181E02E
:102600008C83A12C4EE0942E80911301A816F8F033
:102610000E943E1080918E0191E0B91261C081113B
:102620005AC080911301815080938E011C82DF91EA
:10263000CF911F910F91FF90EF90DF90CF90BF90BF
:10264000AF909F908F90089510928E01D8CF0091F7
:102650009201CA2CD12C0C0D1D2D111DC801880F03
:10266000991F080F191F025B1D4FF801118210827C
:10267000128234E0E32EF12C812C80918E01880DA2
:102680008F301CF1692D0E946D32892F082E000CAD
:10269000990BC816D90691F480914C028E9DA00129
:1026A0008F9D500D11245595479555954795980147
:1026B00060914B0280914A020E944F0F8B0CF1E017
:1026C000EF1AF108D1F6A3949FCF87FFDFCF909147
:1026D0001301890FDBCF815080938E01BC82A7CF7D
:1026E00090E001966091130170E00E948F32809318
:1026F0008E018C839CCFEF92FF920F931F93CF9309
:10270000DF93EC018C81811109C081E08C831092F0
:102710008D0192E0909312018093110180919201BA
:102720009091140123E0829FF0011124E25BFD4FA0
:10273000891768F110E003E060911301161768F142
:102740000E943E108091110120918D01280F20934D
:102750008D0190911201980F90931201191654F463
:10276000022E000C330B409113014150550B2417DE
:10277000350734F0819580931101813009F41C8272
:10278000DF91CF911F910F91FF90EF9008951182EB
:10279000108212828F5F3396CBCFE12EF12C70E046
:1027A000C7010E948F3220919201820F482F50E082
:1027B00020918D01022E000C330BE216F306BCF0C3
:1027C00020911201022E000C330B2E153F057CF0D8
:1027D000809F90011124225B3D4F40914C026091FB
:1027E0004B0280914A020E944F0F1F5FA5CFFA0152
:1027F000EE0FFF1FE40FF51FE25BFD4F1182108209
:102800001282F3CF0F931F93CF93DF938C01FC01C0
:102810008481958101968170992795838483C0E096
:10282000D5E580911301C81730F0DF91CF911F914A
:102830000F910C943E1020919201422F4C0F55277E
:10284000551FCA019A01220F331F280F391F225B1F
:102850003D4F8C2F8695F80144815581840F952F2B
:10286000911D817040914C0260914B028D9F802D93
:1028700011240E944F0FCF5FD4CF0F931F93CF939C
:10288000DF93EC0110E000E0909113019017110626
:1028900009F06CF40E943E108C8190E001968170EA
:1028A00099278C83DF91CF911F910F9108952091EB
:1028B0009201A801420F511D9A01220F331F240FCC
:1028C000351F225B3D4F4C8160914B0280914A0243
:1028D00096959017110651F04CF0442349F0409121
:1028E0004C020E944F0F0F5F1F4FCECF4423B9F30E
:1028F00040E0F7CF80919D01089510929D010895C9
:1029000025E0E9E4F2E0DC0101900D922A95E1F77F
:1029100020919B0130919C0140919D01FC012583F8
:10292000368347830895EBE9F1E011828281846068
:102930008283089560914902669570E04BE050E013
:1029400086E191E00E94A932892B19F481E08093FD
:102950009C010E945527909395018093940180914A
:102960009D01846080939D018091350280FF08C0A5
:102970008AE295E09F938F930E9454060F900F90E8
:10298000089510929C0180919D01846080939D0127
:102990008091350280FF08C081E195E09F938F937D
:1029A0000E9454060F900F9008959091490290FF55
:1029B00059C09170811140C09260909349028091FA
:1029C0009D01816080939D016623E9F16091490238
:1029D00070914A0280914B0290914C020E94700FBC
:1029E0008091350280FF0FC08091490286951F9229
:1029F0008F938DEE96E09F938F930E9454060F90D5
:102A00000F900F900F9060914902669570E04BE037
:102A100050E086E191E00E94A932892B01F10E94E9
:102A2000C11481E08093970140914C0260914B0268
:102A300080914A020C94A012853210F09864BDCFA8
:102A4000880F982BBACF8091350280FFDCCF809120
:102A5000490286951F928F938FEC96E0CCCF0E940F
:102A60009A14DFCF0895682F90914902969581E0DE
:102A7000890F853208F081E00C94D51481E00C9424
:102A80003315682F9091490296958FEF890F09F4BD
:102A900084E20C94D51481E00C94411561E00C940F
:102AA000D51480914902816080934902809135025A
:102AB00080FF0DC01F9281E08F9381E696E09F9387
:102AC0008F930E9454060F900F900F900F9080915B
:102AD000490286950C944E1560E00C94D5148091B3
:102AE0009A01811168C0809135028160809335021E
:102AF00080FF08C080E997E09F938F930E9454065F
:102B00000F900F908091350280FF08C08AE797E010
:102B10009F938F930E9454060F900F900E94CE2592
:102B2000811110C08091350280FF08C082E597E0D6
:102B30009F938F930E9454060F900F900E947026CF
:102B40000E94820F0E946C0F6093490270934A02A8
:102B500080934B0290934C0280919D0183608093FF
:102B60009D016E7FC1F48091350280FF08C089E02D
:102B700097E09F938F930E9454060F900F900E94AE
:102B8000820F0E946C0F6093490270934A028093F7
:102B90004B0290934C020E945D0F0E94990F0E947D
:102BA00093148091490280FF03C086950E946C15A2
:102BB00081E080939A010895809149028160809319
:102BC00049028091350280FF0DC01F9281E08F93F2
:102BD00088E296E09F938F930E9454060F900F9087
:102BE0000F900F908091490286950C946C158091FE
:102BF00049028E7F809349026091490270914A0296
:102C000080914B0290914C020E94700F809135028E
:102C100080FF0FC08091490281701F928F9380EFD7
:102C200095E09F938F930E9454060F900F900F9002
:102C30000F900E94C11480919D01816080939D013D
:102C40002FEF80E792E0215080409040E1F700C0F4
:102C500000000C943E108091350280FF10C08091DE
:102C60004902809581701F928F9388E996E09F9327
:102C70008F930E9454060F900F900F900F908091A9
:102C8000490280FD0C94F7150C945115809149026E
:102C90008E7F809349028091350280FF0CC01F9285
:102CA0001F9286EB95E09F938F930E9454060F909E
:102CB0000F900F900F900E94C11480919D01816030
:102CC00080939D012FEF80E792E02150804090405B
:102CD000E1F700C000000C943E101F93CF93DF93E8
:102CE000EC01162F8F8180FF0CC0888180FF24C0EB
:102CF00080914902816080934902888186950E9473
:102D0000D5148F8181FF06C0212F4B816A81898173
:102D10000E9453118F8182FF05C08E81882379F034
:102D20000E949A148F8183FF03C081E080939701F2
:102D3000DF91CF911F9108950E944616E2CF0E9425
:102D4000C114F0CFEF92FF920F931F93CF93DF93B5
:102D500080919C01882309F475C080919B01E091CA
:102D60004902E695E81BE0939601823009F071C0B4
:102D7000F0E0E059F74FE491CE2FD0E000ED10E104
:102D800080919701882389F0109297010E9455271E
:102D90009E0120953095820F931F9093950180930B
:102DA0009401109299011092980180919401909150
:102DB00095010E9461278C179D0708F443C08091FC
:102DC0009101882311F11092910180918F019091CE
:102DD00090010E94612780339547B8F00E945527E3
:102DE0009093900180938F018091350280FF08C0FD
:102DF00088EE94E09F938F930E9454060F900F905B
:102E000080919D01886080939D01E0909801F090F1
:102E10009901E0919401F0919501CE0FDF1FD093BD
:102E20009501C093940184E991E0F801099580919E
:102E3000980190919901892B29F4EF2819F081E0EC
:102E400080939101DF91CF911F910F91FF90EF90AF
:102E50000895863049F4F0E0E359F74FE491CE2F1E
:102E6000D0E004E011E18CCF893051F4E695F0E038
:102E7000E659F74FE491CE2FD0E003EA12E180CF7C
:102E80008F3051F4E695F0E0E959F74FE491CE2FF9
:102E9000D0E000EE12E174CF853149F4F0E0EC5956
:102EA000F74FE491CE2FD0E00BE713E169CFC8EEE6
:102EB000D3E002E014E1883109F462CF833239F4BF
:102EC000E2E6F8E0C591D49104E111E159CFC4EFF5
:102ED000D1E00DE314E1843209F452CFC0EDD7E024
:102EE00009E41FE04DCF3BB1242F209523233BB1B4
:102EF000432B3FB7F894FC01680F791FE617F707DB
:102F000011F43FBF0895819198E04BB9000000C0D3
:102F100087FF2BB9880F000000C000C000C02BB98C
:102F200000C09A9591F7EACF2AB1242B2AB99B01C8
:102F3000220F331F620F731F0E94731787EC90E0FC
:102F40000197F1F700C00000089548E00C94941731
:102F50000F931F93CF93DF93C62FD42F022FFC0123
:102F600082818823C9F06093A0010E945527909325
:102F70009F0180939E0180E28C0F883008F057C03B
:102F8000C77081E001C0880FCA95EAF7DF91CF9141
:102F90001F910F910C94C01C1091A001161335C005
:102FA00080919E0190919F010E946127883C91052C
:102FB00060F5C0E2CD0F1D17B9F080E2810F8830B7
:102FC00040F4177081E001C0880F1A95EAF70E945B
:102FD000C71CC83028F581E09D2F977001C0880F6D
:102FE0009A95EAF70E94C01C802F0E94AD1CC83041
:102FF000F0F4D77081E001C0880FDA95EAF7DF912D
:10300000CF911F910F910C94C71C80E28C0F8830D8
:1030100070F4C77081E001C0880FCA95EAF7EFCF5E
:10302000802FDF91CF911F910F910C94AD1CDF91F8
:10303000CF911F910F9108959C01CB01233F4CE547
:10304000340731F190F4283DFCE53F07E9F0293DD4
:103050004CE5340769F1273D3C4579F426E241EE21
:1030600061EE0E94A81780E00895253FFCE53F0728
:10307000B9F090F0263F3C45B9F0FC0182818823ED
:10308000D1F01092A001089527E245EE65EEE9CF58
:1030900026E241EE60EEE5CF27E245EE64EEE1CFB9
:1030A00026E241EE62EEDDCF27E245EE66EED9CFB5
:1030B00028E241E0EBCF81E008958EE14A9B02C017
:1030C0008150E1F74A9BFECF08955A9880E28A9595
:1030D000F1F75A9A0895FC013BE03A95F1F720E0A8
:1030E00090E080E031E040E14A95F1F7880F4A9B9B
:1030F00002C08160232742E04A95F1F7000040E1D9
:103100004A95F1F79F5F6913EECF90E19A95F1F739
:1031100099B132E03A95F1F7000040E14A95F1F7B4
:1031200092FB992790F992272081920F908308951E
:10313000EF92FF920F931F93CF93DF931F92CDB720
:10314000DEB719828C017C01E60EF11C0E151F05FD
:1031500061F481E09981911180E00F90DF91CF912E
:103160001F910F91FF90EF9008950E945D1868E005
:10317000CE0101960E946B18F80181938F01E6CF72
:103180009093A3018093A2016093A101529A5A9A4D
:1031900008959093A3018093A2016093A101529896
:1031A0005A9AEA9AE9E6F0E080818F7C808308955C
:1031B0006150770B91E001C0990F6A95EAF720E022
:1031C00031E0911108C0222391F05A9A80E28A9549
:1031D000F1F75A980895492F482339F05A9A23272E
:1031E00040E24A95F1F79695ECCF5A98F9CF5A9864
:1031F000EDCFFF920F931F93CF93DF93EC018C01E0
:10320000060F111DC017D10731F4DF91CF911F9127
:103210000F91FF900895F9900E94651868E08F2D36
:103220000E94D818EFCF1F920F920FB60F92112461
:103230000F931F932F933F934F935F936F937F93BE
:103240008F939F93AF93BF93EF93FF93CF93DF93AE
:103250001F92CDB7DEB719820E945D1867E0CE01DC
:1032600001960E946B18082F069506950695982FD3
:1032700092959570202F2570920F292F2370969587
:1032800096958770920F891344C08981811141C03E
:103290008091A1018017E8F120E12A95F1F75A9A6F
:1032A000529A82E08A95F1F700C0A8E00A9FC00117
:1032B00011240091A2011091A301080F191F5A981F
:1032C000F8016581662321F0868197810E94F918B3
:1032D0000E946518F0E1FA95F1F75A9852985A9AB7
:1032E00020E12A95F1F7D80112966C911297662386
:1032F00031F113968D919C910E949818D801ED910F
:10330000FC91882311F088E001C082E080830E9454
:103310005D180F90DF91CF91FF91EF91BF91AF9129
:103320009F918F917F916F915F914F913F912F91DD
:103330001F910F910F900FBE0F901F901895ED9158
:10334000FC91E1CF0F931F93CF93DF932091A101C5
:10335000281719060CF471C08C0193E0000F111F9F
:103360009A95E1F7C091A201D091A301C00FD11F9E
:10337000F894529A5A9825E02A95F1F70000982F70
:10338000969595708570980F892F83709695969570
:10339000980F092B0E94651800C067E0802F0E94DB
:1033A000D81880E18A95F1F752985A9A4A9B17C02B
:1033B00087E090E04A9915C06D81662321F18E81E6
:1033C0009F810E94981881111EC0529A5A9AE881D2
:1033D000F98182E08083789482E090E00DC000C0A3
:1033E000E5CF019771F4529A5A9AE881F98181E008
:1033F0008083789481E090E0DF91CF911F910F91CD
:10340000089500C0D7CF0E945D1820E22A95F1F7F9
:103410005A98529A80E18A95F1F76A81662321F0E1
:103420008B819C810E94F9180E946518E881F981BE
:103430001082789490E080E0DFCF84E090E0DCCFF1
:103440009093A9018093A8010895E091A801F091BB
:10345000A901309721F00190F081E02D099480E0DE
:103460000895EF92FF920F931F93CF93DF938C01F8
:10347000E091A801F091A9013097C1F10280F38198
:10348000E02D09958091350282FF30C080FF04C095
:103490008FE899E00E94BB05D0E0C0E089E8E82E03
:1034A00089E0F82E8091350280FF0EC0F801EC0F04
:1034B000FD1F80811F928F93FF92EF920E9454060E
:1034C0000F900F900F900F902196C830D10551F7B3
:1034D0008091350280FF0AC087E899E0DF91CF91A3
:1034E0001F910F91FF90EF900C94BB05DF91CF914E
:1034F0001F910F91FF90EF9008952091A6013091B8
:10350000A7012817390771F09093A7018093A601AE
:10351000E091A801F091A901309721F00680F78190
:10352000E02D099408952091A4013091A501281758
:10353000390771F09093A5018093A401E091A8014F
:10354000F091A901309721F00084F185E02D0994D4
:10355000089585B7806885BF85B7806885BF089561
:10356000089508950C94B01A08950C94B41A0E940A
:10357000A91A0E94B11A0C94B21A0E944C270E94F8
:10358000E90C0E94C2270E946F150C94B51ACF93C4
:10359000C82F8091350282FF1EC080FF04C088EAD8
:1035A00099E00E94BB058091350280FF0CC01F92FC
:1035B000CF9383EA99E09F938F930E9454060F90D4
:1035C0000F900F900F908091350280FF04C081EA28
:1035D00099E00E94BB058C2FCF910C941107BF92EC
:1035E000CF92DF92EF92FF920F931F93CF93DF93CF
:1035F000CDB7DEB72A970FB6F894DEBF0FBECDBFAA
:103600000E94BD0D0E94270E882309F46FC08BEA2B
:10361000C82E81E0D82E10E000E0B02E802F0E944E
:103620009D0CE82EF601F1906F01F81609F458C0D0
:103630008091350281FD0E94A30C90E080E0FE2481
:103640002F2D30E0482FB901082E02C075956795DF
:103650000A94E2F760FF3FC08E83BF8281E090E072
:103660006C0102C0CC0CDD1C4A95E2F72E2D30E037
:103670002C213D21232B09F480E088870E945527C7
:103680008160782F9A8789874E815F8168858A85D6
:103690000E94971BF801E555FE4F80818C258083A1
:1036A0000E94251A9091AA01891789F10E94251A72
:1036B0008093AA012A960FB6F894DEBF0FBECDBF45
:1036C000DF91CF911F910F91FF90EF90DF90CF90FE
:1036D000BF900C94C71A01968830910509F0B2CFBB
:1036E0000F5F1F4F0A30110509F097CF8FEF8983C5
:1036F0008A831B820E9455278160782F9D838C834B
:1037000049815A816B818D810E94971BC9CF2A966E
:103710000FB6F894DEBF0FBECDBFDF91CF911F91E2
:103720000F91FF90EF90DF90CF90BF900895CF93CF
:10373000DF93CDB7DEB72B970FB6F894DEBF0FBE81
:10374000CDBF4F83588769877A878B871E821D82FA
:1037500085E0FE013796DE01119601900D928A9563
:10376000E1F749815A816B817C818D819E812B9605
:103770000FB6F894DEBF0FBECDBFDF91CF910C9492
:10378000E121FC01808191810C94AC24882309F40F
:10379000BBC09CEF980F913A20F40E94DA240C945D
:1037A0004E2590E2980F983050F4877091E001C058
:1037B000990F8A95EAF7892F0E940225F0CF9BE5A1
:1037C000980F933070F4853A31F0863A39F083E8F7
:1037D00090E00C947D1A81E890E0FBCF82E890E0C5
:1037E000F8CF98E5980F973108F08EC0883A09F421
:1037F00046C0893A09F446C08A3A09F446C08B3A71
:1038000009F446C08C3A09F446C08B3B09F446C023
:103810008C3B09F446C08D3A09F446C0803B09F45C
:1038200046C08E3A09F446C08F3A09F446C0813B3F
:1038300009F446C0823B09F446C0833B09F446C004
:10384000843B09F446C0853B09F446C0863B09F435
:1038500046C0873B09F446C0883B09F446C0893B13
:1038600009F446C08D3B09F446C08E3B09F446C0BE
:103870008A3B09F446C090E080E00C94931A82EEF3
:1038800090E0FBCF89EE90E0F8CF8AEE90E0F5CFA4
:1038900085EB90E0F2CF86EB90E0EFCF83EB90E00A
:1038A000ECCF84EB90E0E9CF87EB90E0E6CF8CECB7
:1038B00090E0E3CF8DEC90E0E0CF83E891E0DDCFC6
:1038C0008AE891E0DACF82E991E0D7CF84E991E00C
:1038D000D4CF81E292E0D1CF83E292E0CECF84E2F6
:1038E00092E0CBCF85E292E0C8CF86E292E0C5CFEE
:1038F00087E292E0C2CF8FE690E0BFCF80E790E012
:10390000BCCF8AE292E0B9CF0895882329F19CEFD9
:10391000980F913A20F40E94E1240C944E2590E2F5
:10392000980F983050F4877091E001C0990F8A95F4
:10393000EAF7892F0E940825F0CF9BE5980F933076
:1039400020F490E080E00C947D1A885A873120F4AE
:1039500090E080E00C94931A0895CF93C82F0E94B2
:10396000C61BC93349F42FEF87EE93E02150804006
:103970009040E1F700C000008C2FCF910C94851C83
:10398000882321F00E9402250C944E250895882357
:1039900021F00E9408250C944E250895CF92DF92C5
:1039A000EF92FF920F931F93CF93DF937C01D62F5B
:1039B000C72FFC01158112951F70028101110E9411
:1039C00021250E94F824D82E882371F0002321F1AC
:1039D00080E28D0F883000F182E00E9499250E94DC
:1039E000F82491E0D82ED926EC2FE295EF70F0E084
:1039F000E450F34E0C94A3320E1D0E1D5B1D5B1D97
:103A00003B1D3B1D3B1D3B1DA71D361E471E471E74
:103A1000AC1E3B1D3B1DB51ED12CE6CF1C2F1F70CD
:103A2000C07F11F01295107F0023A9F0112359F0E7
:103A300080E28D0F883010F0D11109C0812F0E94D3
:103A400002250E944E258D2F0E94C61B14C0812F77
:103A50000E941325F6CF8D2F0E94851C112359F04B
:103A600080E28D0F883010F0D11121C0812F0E948B
:103A700008250E944E25DD2009F47EC10E94F42411
:103A800080FD7AC1F70112820E94EE240E94742305
:103A9000C7010E94C51E0E94EE24DF91CF911F91A5
:103AA0000F91FF90EF90DF90CF900C949523812F92
:103AB0000E941925DECFFC2FFF70CF2EC07FC032B1
:103AC00019F0C29480EFC822DD2339F0D13019F10A
:103AD000002361F1112321F1B6CF002381F01111F0
:103AE00006C00E9435258C290E94C01CC4CF11300D
:103AF000C1F70E9435258C290E943B25BCCF1111AE
:103B000006C00E9444258C2D0E94C71CB4CF1130E2
:103B100009F4B1CFF6CF002329F0163008F0ABCF6F
:103B20008C2DE2CF153008F0A6CFEDCF112359F33D
:103B3000D93349F42FEF87EE93E021508040904035
:103B4000E1F700C000008D2F0E94851C94CF8C2FC0
:103B5000837009F045C0011135C04D2F429546953F
:103B60004770440F440F0D2F0F7010E030E020E03D
:103B7000042E04C0000F111F221F331F0A94D2F716
:103B800060E070E0CB01D4FF0FC06FE070E080E038
:103B900090E004C0660F771F881F991F4A95D2F7DF
:103BA0006095709580959095602B712B822B932B4F
:103BB000C695C695C370C23069F078F4C13039F04B
:103BC0000E9426230E94251A0E94110754CF0E94AA
:103BD0001423F8CF0E943823F5CF0E941223F2CF8E
:103BE0008695002311F08C2F8170882359F34D2F77
:103BF000429546954770440F440F0D2F0F7010E00B
:103C000030E020E0042E04C0000F111F221F331FDC
:103C10000A94D2F760E070E0CB01D4FF0FC06FE0F0
:103C200070E080E090E004C0660F771F881F991F46
:103C30004A95D2F76095709580959095602B712B81
:103C4000822B932BC695C695C370C23049F058F4A9
:103C5000C13019F00E94EB23B5CF0E94D923B2CF17
:103C60000E94FD23AFCF0E944E23ACCFCF70002324
:103C700039F08C2F0E9474238D2F0E94C01CA2CF7C
:103C80008D2F0E94C71C8C2F0E9495239BCFD23F63
:103C900099F170F4D03FD9F0D13F39F1002309F404
:103CA00047C0112309F441C08D2F0E94C61B8ACF43
:103CB000D33F39F1D43F91F7002369F1CF718C2FB5
:103CC0000E94742363E08C2F0E9484257BCF002305
:103CD00041F0153008F076CF8C2F8F710E94B823F9
:103CE00071CF163008F06ECFF7CF8C2F8F71002375
:103CF00059F20E94742366CF8C2F8F710023C9F371
:103D0000C3CF002329F08C2F8F710E945F235ACFDD
:103D10000E945A2357CF81E00E949925123008F45F
:103D200051CF82E00E9499254DCF8C2F8F71E1CF2A
:103D3000112379F0D93349F4EFEFF7EE23E0E150A6
:103D4000F0402040E1F700C000008D2F0E94851C4C
:103D500039CF8C2F8F7198CF4C2F4F706D2FC7019B
:103D60000E94DD090E948A2286CE4C2F4F706D2F53
:103D7000C7010E94E0097FCEDF91CF911F910F9183
:103D8000FF90EF90DF90CF9008950F931F93CF9304
:103D9000DF93EC01988189812B813C81232B39F0C1
:103DA0008F3F19F481E09F3F19F080E001C081E06E
:103DB00080FD17C0CE010E942F07882391F06881F3
:103DC00079818A810E94B6248C010E940F240E946E
:103DD0001123B801CE01DF91CF911F910F910C9467
:103DE000CE1CDF91CF911F910F9108950E94212544
:103DF0000E9432250C944E250E94E8240C94F61E55
:103E00000E9410250C94FC1EE92FE295EF70E25001
:103E1000EE30E0F4F0E0E15FF04E0C94A3321D1FB1
:103E20001D1F261F261F281F261F261F261F1D1F7A
:103E30001D1F2D1F261F261F2D1F803F19F020F448
:103E4000883E20F481E00895843FE1F380E0089506
:103E5000883EC0F3813FD1F7F5CF93FB882780F9E7
:103E600008950E94AC240C94041FCF93DF9300D0DC
:103E700000D01F92CDB7DEB70F900F900F900F902C
:103E80000F90DF91CF910895CF93DF9300D000D0B2
:103E900000D0CDB7DEB726960FB6F894DEBF0FBEC2
:103EA000CDBFDF91CF9108951F93CF93DF93C09142
:103EB000B60116E08091B7018C1304C0DF91CF9159
:103EC0001F910895D0E01C9FF0011D9FF00D11245B
:103ED000E854FE4F408151816281738184819581D4
:103EE0000E94441F2196C770E5CF4091E801509190
:103EF000E9016091EA017091EB018091EC019091F0
:103F0000ED010C94441F2091B6019091B70156E049
:103F1000291302C080E0089530E0529FF001539FC2
:103F2000F00D1124E854FE4F7181761306C07081A4
:103F3000781303C07281741304C02F5F3F4F277042
:103F4000E7CF81E008951F93CF93DF938091ED0138
:103F5000807FD1F48091EA018823B1F08091B6018D
:103F6000D091B701B091E801C091E9014091EB0116
:103F70005091EC01A1E0BF3F09F0A0E0BA016095CB
:103F8000709516E0D81304C0DF91CF911F9108956A
:103F900021E04115510521F02A2FCF3F09F020E003
:103FA00090E020FD38C0189FF001199FF00D1124FA
:103FB000E854FE4F21812C132EC020812B132BC0DF
:103FC0002281211128C0238134812417350700F173
:103FD000241B350B283C3105F0F42091ED012F70A6
:103FE00020612093ED0126E0289FF001299FF00D2C
:103FF0001124E354FE4F80818F708061808388EEAE
:1040000091E00E94C51EDF91CF911F910C94541F27
:10401000260F371FDFCF01968770B4CF9F92AF92E4
:10402000BF92CF92DF92EF92FF920F931F93CF93A5
:10403000DF93CDB7DEB761970FB6F894DEBF0FBE42
:10404000CDBF7C0185E0F701DE011D9601900D9248
:104050008A95E1F7D701DC9011960C911197129691
:10406000CC903091E8014091E9018091EB01909171
:10407000EC0121E0009731F04F3F19F421E03F3F80
:1040800009F020E020FD81C1F701A380B480909069
:10409000EA01992009F43DC1A816B906D8F1B50185
:1040A000681B790BCB0111E0883C910508F010E00A
:1040B0008091ED01982F907F112309F4E3C09111B5
:1040C0009DC01C2D40132BC03D1129C0C11027C01D
:1040D0008F7080618093ED010E94751F88EE91E0E2
:1040E0000E94C51E8091ED01D70115968C93812FFA
:1040F00061960FB6F894DEBF0FBECDBFDF91CF91B2
:104100001F910F91FF90EF90DF90CF90BF90AF90F5
:104110009F900895809590958A0D9B1DC4CF81E056
:10412000A114B10431F00F3F19F481E0BFEFDB12AD
:1041300080E080FD1AC081E08C2580FF18C04C2DE6
:10414000602F8D2D0E94831F882389F088EE91E0D7
:104150000E94C51E86E0E8EEF1E0DF011D928A951F
:10416000E9F70E94751F10E0C2CF80E0E6CF81E042
:10417000AB2831F00F3F19F481E0BFEFDB1280E094
:1041800080FD25C081E08C25E82FE170AE2E80FFF8
:104190002CC04C2D602F8D2D0E94831FB82E8111B5
:1041A00024C0DD860E878D859E850E94AC24292F34
:1041B00022952F70223068F0243090F49F7069F0BF
:1041C000D70115969C91907F41F41B2D90CF80E0F4
:1041D000DBCF9F7011F08823C1F3805E8830A8F395
:1041E000C7010E94C51EBA2CF0CFCC2009F47FCFA6
:1041F0008091ED0181608093ED01B5CF401314C033
:104200003D1112C0C11010C0F7018583C7010E9483
:10421000C51E86E0F701A8EEB1E001900D928A95E7
:10422000E1F70E94751F63CFDD860E878D859E8521
:104230000E94311F882311F1CC2001F18091ED0102
:10424000803270F02091E8013091E90138872F83A6
:104250001986BB86AA868C87CE0107960E94C51E4A
:1042600086E0F701A8EEB1E001900D928A95E1F7A2
:104270000E94A31F0E94751F11E039CFC7010E9441
:10428000C51EFACF911115C07A2DB98AA88A4D2D75
:10429000502F6C2D89890E94351F88EE91E00E9475
:1042A000C51E86E0E8EEF1E0DF011D928A95E9F790
:1042B000B8CF401312C03D1110C0C1100EC0F7019D
:1042C0008583C7010E94C51EE8EEF1E086E0DF01AC
:1042D0001D928A95E9F7192D0ACFDD860E878D8507
:1042E0009E850E94311F882349F2CC2039F28091AB
:1042F000ED01803208F4B4CF2091E8013091E9015A
:104300003A8329831B82BD82AC828E83CE010196C3
:10431000A5CFA816B906C8F0F501E81BF90BCF0127
:1043200010E0883C910538F51C2DCC2009F4A6CF6F
:10433000401310C03D110EC086E0F701A8EEB1E0B9
:1043400001900D928A95E1F7D2CE809590958A0DD5
:104350009B1DE6CFDD860E878D859E850E94311FD1
:1043600081117ECF8091ED0181608093ED01C701C5
:104370000E94C51EBCCE7A2DB98AA88A4D2D502F19
:104380006C2D89890E94351F8CCFCC2009F476CF03
:10439000DD860E878D859E850E94311F182F88230C
:1043A00009F46CCF86E0F701A8EEB1E001900D9220
:1043B0008A95E1F788EE91E00E94C11B0E94A31F3D
:1043C00030CF1F93CF93DF93CDB7DEB72C970FB6C7
:1043D000F894DEBF0FBECDBF4F83588769877A87B9
:1043E0008B879C87CE0107960E940E20882309F4B4
:1043F00042C09F8188852A853B85232B39F08F3FDA
:1044000019F481E09F3F19F080E001C081E080FD58
:1044100008C04F81588569857A858B859C850E9467
:10442000441F16E08091B6019091B701891709F4F5
:1044300067C0819FC001112488549E4F0E940E20A6
:10444000882309F45DC0E091B6011E9FF00111249C
:10445000E854FE4F4081518162817381848195814E
:104460000E94441F8091B60190E0019687709927C1
:104470008093B601D7CF86E0FE013796DE01119614
:1044800001900D928A95E1F79F8188852A853B8569
:10449000232B39F08F3F19F481E09F3F19F080E022
:1044A00001C081E080FDBDCF2091B70130E0C9019E
:1044B0000196877099274091B6014817190699F01F
:1044C00096E0929FD001939FB00D1124A854BE4F47
:1044D000FE01319601900D929A95E1F78093B70114
:1044E0000E94541F9ECF0E94001F1092B70110928D
:1044F000B60186E0E8EEF1E0DF011D928A95E9F76A
:104500002C960FB6F894DEBF0FBECDBFDF91CF91D2
:104510001F910895EF92FF920F931F93CF93DF9314
:104520008C01892B81F0F12CEE24E394E801219693
:10453000F8018491843770F4843008F05FC08130D2
:10454000B1F08230A1F1DF91CF911F910F91FF90D7
:10455000EF900895853709F44CC008F43DC09CE7FE
:10456000980F903780F78F770E94851C49C00E5FA7
:104570001F4FFE01849190E2980F983060F487708D
:10458000FE2D01C0FF0F8A95EAF78F2F0E94242588
:104590000E944E2502C00E94C61B8F2D815030F212
:1045A000EFE9FFE03197F1F700C00000F7CF0E5FB1
:1045B0001F4FFE01849190E2980F983050F487705D
:1045C000FE2D01C0FF0F8A95EAF78F2F0E942A2542
:1045D000DFCF0E94851CE1CF0E5F1F4FFE01C4910B
:1045E000C150D8F28FE99FE00197F1F700C00000B9
:1045F000F7CF0E5F1F4FFE01F490CFCF0E94C61B76
:104600008E01CBCF08950C9402230E940323609364
:1046100024027093250280932602909327020C9423
:10462000F61E08950C9405230F931F930091240206
:10463000109125022091260230912702602B712BC8
:10464000822B932B1F910F910C9405230F931F9393
:104650000091240210912502209126023091270218
:1046600060237123822393231F910F910C940523C0
:104670000F931F930091240210912502209126028E
:104680003091270260277127822793271F910F916E
:104690000C9405230C9402230C944A230E944C236F
:1046A0006093200270932102809322029093230250
:1046B0000C94F61E60E070E0CB010C944E230F9337
:1046C0001F9341E050E060E070E08A019B0104C06C
:1046D000000F111F221F331F8A95D2F7C901B8019D
:1046E0001F910F910C944E230F931F9341E050E0C4
:1046F00060E070E004C0440F551F661F771F8A9565
:10470000D2F78091200290912102A0912202B091D3
:1047100023028A019B01082B192B2A2B3B2BC90151
:10472000B8011F910F910C944E230F931F9341E0FA
:1047300050E060E070E004C0440F551F661F771F13
:104740008A95D2F7CB01BA016095709580959095C6
:104750000091200210912102209122023091230227
:1047600060237123822393231F910F910C944E2376
:104770000F931F9341E050E060E070E004C0440FED
:10478000551F661F771F8A95D2F78091200290915E
:104790002102A0912202B09123028A019B010827E5
:1047A00019272A273B27C901B8011F910F910C94A3
:1047B0004E230F931F93009120021091210220910C
:1047C000220230912302602B712B822B932B1F919D
:1047D0000F910C944E230F931F9300912002109180
:1047E000210220912202309123026023712382232F
:1047F00093231F910F910C944E230F931F930091BD
:104800002002109121022091220230912302602780
:104810007127822793271F910F910C944E2308959F
:10482000990F990F990F890F982F977071E001C018
:10483000770F9A95EAF786958695869525E0829F6B
:10484000C001112450E040E0A62FB0E0FC01E40FCD
:10485000F51FE251FE4F60819D01042E02C0369586
:1048600027950A94E2F721702195262727232627EA
:1048700020834F5F5F4F4530510541F70895990FF1
:10488000990F990F890F982F977086958695869521
:1048900025E0829FA001112470E060E080E0FA0131
:1048A000E60FF71FE251FE4F208130E0092E02C0D3
:1048B000369527950A94E2F721703327062E01C01A
:1048C000220F0A94EAF7822B6F5F7F4F65307105E4
:1048D00031F70895BF92CF92DF92EF92FF920F933C
:1048E0001F93CF93DF938C01C0902002D0902102C0
:1048F000E0902202F0902302809124029091250200
:10490000A0912602B0912702C82AD92AEA2AFB2AB6
:10491000CFE1D0E0BC2ED701C6010C2E04C0B69565
:10492000A795979587950A94D2F780FD0EC0219799
:1049300088F7B12C8B2DDF91CF911F910F91FF90B4
:10494000EF90DF90CF90BF900895B8018C2F0E9418
:10495000FE09019761F3EECFCF93DF93EC010E9444
:104960006A24BE01DF91CF910C94FE091F93CF936F
:10497000DF93EB019091B501992331F0CB01DF91E9
:10498000CF911F910C94AC24882379F0CB010E9425
:104990006A24182F682FCE010E941024BE01812F97
:1049A000DF91CF911F910C94FE09CB010E943F240F
:1049B000182FF4CF682F80912101909122010C943F
:1049C000AA26682F80912101909122010C94AC2697
:1049D00080912101909122010C94AE2680912802B1
:1049E000859585958595089580912802877008950D
:1049F00090912802977081E009F480E008958091F9
:104A00003402089590913402892B809334020895E2
:104A1000982F9095809134028923809334020895D1
:104A200010923402089590913302892B80933302BF
:104A30000895982F909580913302892380933302B3
:104A4000089510923302089590913202892B809339
:104A500032020895982F9095809132028923809395
:104A60003202089510923202089580912902089529
:104A700008950C94382590912902981721F080937D
:104A800029020C943925089580912902882329F060
:104A90001092290280E00C9439250895E0912101BB
:104AA000F0912201809134028083E0912101F09104
:104AB0002201808190913302892B8083E091210132
:104AC000F0912201808190913202892B8083909114
:104AD0002902992381F0E0912101F0912201808146
:104AE000892B808380912101909122010E94772659
:104AF00081110E94442580912101909122010C9402
:104B0000311A08950C94812598E0899F9001112411
:104B1000622B609328020E9474238091280285955D
:104B2000859585950C9482251092280280E00C943E
:104B30008225909128028095892380932802282F2E
:104B4000277071F4282F082E000C330B92171306D0
:104B500039F08595859585950E9495230C9494252B
:104B6000089590936701809366010895829590E07F
:104B70009C01220F331F220F331F2C7C95958795A4
:104B8000959587958373282B30E0C901880F991F6D
:104B90008A7A359527952575822B089590E080E0D7
:104BA0000E94C43221E08C3E9E4F09F020E0822F0B
:104BB000089582E090E00C94B63283E090E00C948B
:104BC000B632682F83E090E00C94CA32CF9384E031
:104BD00090E00E94B632C82F81E290E00E94B63287
:104BE000982F8C2FCF910895CF93C92F682F84E0F1
:104BF00090E00E94CA326C2F81E290E0CF910C9439
:104C0000CA32AB01BC018FE090E00C94DC32AB0106
:104C1000BC0183E190E00C94DC3260E070E0CB01F9
:104C20000C94072660E070E0CB010E9401260C94F2
:104C30000D266CEE7EEF90E080E00E94E83260E0AE
:104C400082E090E00E94CA3260E083E090E00E943F
:104C5000CA3210922402109225021092260210925B
:104C6000270260E084E090E00E94CA3260E081E2C6
:104C700090E00E94CA3260E085E090E00E94CA3273
:104C800060E086E090E00E94CA326FEF87E090E03B
:104C90000E94CA3240E050E0BA0188E090E00E94F1
:104CA000DC3260E08DE090E00E94CA3240E050E0EB
:104CB000BA0188E190E00E94DC3260E087E190E098
:104CC0000E94CA3240E050E0BA018CE190E00E94BC
:104CD000DC3260E080E290E00E94CA320C9412263E
:104CE0000C941926682F8EE090E00C94CA32FC01D7
:104CF000329697E080E0915009F4089521912223A3
:104D0000D1F38F5FF8CF9C01FC0132969FEF80E0DA
:104D10004191461751F09F3F19F4411101C0982F5E
:104D20008F5F8630A9F79F3F09F40895290F311D41
:104D300097FD3A95F90162830895FC013296089631
:104D40002191261303C0DF0111971C92E817F90780
:104D5000B9F708950C9483260C949D26029626E0BC
:104D6000FC0111922A95E9F70895089508950C948D
:104D7000B6260E94B72680918202843009F439C099
:104D80001092360288E190E020E40FB6F894A895DE
:104D9000809360000FBE2093600080E00E941107A6
:104DA0000E94C1148091370281110AC081E0809372
:104DB0003702809149028170809338020E94461622
:104DC0000E94B72683B7817F846083BF83B78160E9
:104DD00083BF7894889583B78E7F83BF0FB6F8948E
:104DE000A8958091600088618093600010926000B7
:104DF0000FBE08950895CF930E94B5260E94BD0D61
:104E00000E94FA26C0E08C2F0E949D0C811105C0E3
:104E1000CF5FCA30C1F7CF91089581E0FCCF0895EC
:104E20000C940F270E94001F0E94251A0E94110750
:104E3000109237028091380281110E94DC150E9485
:104E40009A140C9410271F920F920FB60F921124F0
:104E50008F939F93AF93BF9380913602811113C0BC
:104E60008091780290917902A0917A02B0917B02B0
:104E70004196A11DB11D8093780290937902A09371
:104E80007A02B0937B02BF91AF919F918F910F9067
:104E90000FBE0F901F90189582E084BD93E095BDE2
:104EA0009AEF97BD80936E0008952FB7F894809184
:104EB000780290917902A0917A02B0917B022FBF83
:104EC0000895CF92DF92EF92FF920F931F932FB727
:104ED000F894409178025091790260917A02709131
:104EE0007B022FBF6A017B01EE24FF248C0130E09E
:104EF00020E0C016D106E206F30650F0481B590B1D
:104F0000CA011F910F91FF90EF90DF90CF9008950D
:104F100041505109F3CF78941F920F920FB60F9220
:104F200011248F939F93AF93BF93809178029091B8
:104F30007902A0917A02B0917B020196A11DB11D68
:104F40008093780290937902A0937A02B0937B02C7
:104F5000BF91AF919F918F910F900FBE0F901F90B7
:104F6000189587E797E7909301088093000888E1F8
:104F70009AE00FB6F894A895809360000FBE9093C6
:104F80006000FFCF0E94CE25811102C00E947026D2
:104F90000E94D925809335020E94E62590937D02D8
:104FA00080937C020E94DD25682F70E090E080E015
:104FB0000C941223809144020895089508959FB798
:104FC000F89410923B029FBF90918202943009F0B6
:104FD00049C02091E9002F709091EC0090FD30C005
:104FE00090E0922B22E02093E9002091EB0020FF3B
:104FF00036C02091EE0027FF32C0209139022223D3
:1050000021F02091E80025FF2AC01092390226E005
:105010003091E80035FF16C08093F1008091E800E0
:1050200085FD29C08091E80080FFFCCF8091E800D9
:105030008E778093E8009F709093E90080E0089558
:1050400090E8CFCF30918202343049F43091EB00B8
:1050500035FD05C0215041F481E0809339029F70F5
:105060009093E9008FEF0895EFE9FFE03197F1F7B2
:1050700000C00000CDCF8FB7F89421E020933B0211
:105080008FBFD9CFCF93DF93EC010E946A2A823081
:1050900011F0843039F581E08093E9008FEF909131
:1050A000E800815095FD06C095ED9A95F1F7000056
:1050B0008111F5CF8091E80085FF14C050E040E0F9
:1050C00068E070E0CE010E94872A8091E8008E7728
:1050D0008093E80088E0FE01ACE3B2E001900D921D
:1050E0008A95E1F7DF91CF910895089580EE99E0D8
:1050F0000E94BB0580918102811109C00E94172C7A
:105100000E94742C8091E20084608093E2000895F4
:105110008CED99E00E94BB0510928102089588ED04
:1051200099E00C94BB0584ED99E00C94BB0580EDEF
:1051300099E00E94BB050C94122720913A022F5F40
:10514000822F62E30E946132992319F020933A0280
:10515000089510923A0280913B028823E9F08091F1
:1051600082028430B9F49091E9009F708091EC0044
:1051700080FD13C080E0892B92E09093E90090912C
:10518000EB0090FF04C09091EE0097FD0AC08F7075
:105190008093E90010923B02089580E8ECCF1092D2
:1051A000F1009091E80095FDFACF9091E80090FF12
:1051B000EECF9091E8009E779093E800E8CF42E030
:1051C00061EC81E00E94952B42E261EC82E00C945C
:1051D000952B80918402833009F462C030F48130D1
:1051E000D9F1823009F49EC008958A3009F48AC04A
:1051F0008B3009F470C0893009F051C0809183026E
:10520000813209F04CC08091870290918802892BED
:1052100009F045C08091E800877F8093E800809185
:10522000E80082FF38C08091F3009091F200892756
:1052300098278927029729F48091F1008B7F81308C
:1052400021F48091F100809344028091E8008B77F3
:105250008093E8000C94C92B80918302813AF9F481
:105260008091E800877F8093E80080918702909189
:105270008802892B61F468E08CE392E070E00E9480
:10528000D62A8091E8008B778093E800089560E04B
:1052900090E080E0F3CF809182028111C0CF089529
:1052A00080918302813AD9F7809187029091880298
:1052B000892BA9F78091E800877F8093E80080918F
:1052C000E80080FFFCCF80912D018093F100809158
:1052D000E8008E77BDCF80918302813201F7809103
:1052E000870290918802892BD1F68091E800877F10
:1052F0008093E8000E94C92B8091850280932D0144
:105300000C94001F80918302813249F68091E8005D
:10531000877F8093E8000E94C92B8091860280934A
:105320004502089580918302813A09F0B8CF8091B7
:10533000E800877F8093E8008091E80080FFFCCF41
:1053400080914502C2CF84B7877F84BF0FB6F8949F
:10535000A895809160008861809360001092600041
:105360000FBE80E880936100109261000E94B71A1E
:105370000E94172C0E94742C8091E200846080931C
:10538000E2008FED97E20E94B12578940E94FC2EF6
:105390000E94BD1A83E291E00E94201A8FEB99E0EF
:1053A0000E94BB0580918202853029F00E94EF1A8D
:1053B0000E94A216F7CF8BEB99E00E94BB050E94DA
:1053C000B92680918002882369F30E94FB268823F6
:1053D00049F30E94712AE6CF0C94EE29E92FFF27AA
:1053E000E330F10551F150F4E130F105C1F03297AD
:1053F000F9F0F0E0E0E090E080E015C0E132F10586
:1054000009F441C0E232F105A1F76115710509F413
:105410004BC08AE69AE06130710529F0EACFE2E1FB
:10542000F0E088E59AE0DA018D939C93CF0108952E
:10543000E2E4F0E086E19AE0F6CF99278130910529
:10544000A1F060F082309105B9F0039791F6E4EE97
:10545000F9E0E491F0E084EE99E0E5CFE2E1FAE0F2
:10546000E491F0E082E19AE0DECFE2E0FAE0E4915C
:10547000F0E082E09AE0D7CFEAEEF9E0E491F0E0E4
:105480008AEE99E0D0CFE9E0F0E088E29AE0611599
:10549000710509F4C8CFE9E0F0E081E49AE06130F9
:1054A000710509F4C0CFA5CFE0E4F0E08CE89AE004
:1054B000BACF0895CF93C82F0E94592AC0934602AD
:1054C000CF91089580918202843011F081E0089597
:1054D00082E0089580914602811102C00C94622AF4
:1054E000089580E189BD82E189BD09B400FEFDCF48
:1054F0008091D8008F7D8093D8008091E0008260F9
:105500008093E0008091E00081FDFCCF0895AF9290
:10551000BF92CF92DF92FF920F931F93CF93DF93AF
:105520006C01EB018A010E94E82BF82E811123C047
:105530000115110539F0F80180819181C81BD90B43
:10554000C80ED91EB12CA12C2097A9F08091E8009B
:1055500085FD22C08091E8008E778093E8000115D8
:105560001105A1F0F80180819181A80EB91EB182C8
:10557000A08285E0F82E8F2DDF91CF911F910F91A2
:10558000FF90DF90CF90BF90AF9008950E94E82BDE
:105590008823D1F2F82EEFCFF60181916F0180932D
:1055A000F1002197FFEFAF1ABF0ACECFFC01809127
:1055B000890290918A0286179707A0F061157105FC
:1055C00029F49091E8009E779093E80090E06115AF
:1055D000710551F4911108C08091E80082FF35C037
:1055E00080E00895BC01F2CF809182028823C9F146
:1055F0008530C9F18091E80083FD31C08091E800D9
:1056000082FDEACF8091E80080FFE1CF2091F30096
:105610008091F200322F282F6115710519F0283082
:10562000310558F091E02830310509F090E02091E3
:10563000E8002E772093E800CACF81918093F10093
:10564000615071092F5F3F4FE7CF8091820288231D
:1056500041F0853041F08091E80083FFBDCF81E0CB
:10566000089582E0089583E00895FC018091890205
:1056700090918A0286179707A0F06115710529F4A9
:105680008091E8008E778093E80090E061157105C5
:1056900051F4911108C08091E80082FF36C080E08B
:1056A0000895BC01F2CF809182028823D1F1853028
:1056B000D1F18091E80083FD32C08091E80082FD45
:1056C000EACF8091E80080FFE1CF2091F300809144
:1056D000F200322F282F6115710519F0283031059D
:1056E00058F091E02830310509F090E08091E80011
:1056F0008E778093E800CACF84918093F100319631
:10570000615071092F5F3F4FE6CF8091820288235D
:1057100041F0853041F08091E80083FFBCCF81E00B
:10572000089582E0089583E00895982F973028F037
:105730008F708093E90081E008959093E900242F11
:10574000762F50E0981731F07091EC002091ED0029
:105750005091F00021FD02C09F5FE8CF3091EB0037
:105760003E7F3093EB003091ED003D7F3093ED00B4
:105770003091EB0031603093EB007093EC0020939C
:10578000ED005093F0002091EE0027FDE5CF80E082
:1057900008958091830287FF13C08091E80082FF03
:1057A00006C08091E8008B778093E80004C0809168
:1057B00082028111F2CF0895809182028823D9F369
:1057C0008091E80080FFF8CF8091E8008E77ECCFE1
:1057D0002091E4003091E50085E69091EC0090FF87
:1057E00006C09091E80090FF06C080E00895909177
:1057F000E80092FDFACF90918202992391F09530C2
:1058000091F09091EB0095FD10C04091E400509113
:10581000E5002417350709F381509A01F1F684E079
:10582000089582E0089583E0089581E008950E943C
:10583000852C0E948D2CE0EEF0E0808181608083D9
:10584000E8EDF0E080818F77808319BCA7EDB0E0B0
:105850008C918E7F8C9380818F7E808310928102C9
:1058600008950F931F93CF93DF930E94852C0E947E
:105870008D2CC8EDD0E088818F77888388818068FF
:10588000888388818F7D888319BC10928202109250
:105890007E021092800210927F0200EE10E0F8016A
:1058A00080818B7F808388818160888342E060E093
:1058B00080E00E94952BE1EEF0E080818E7F808376
:1058C000E2EEF0E080818160808380818860808367
:1058D000F80180818E7F8083888180618883DF9159
:1058E000CF911F910F910895E8EDF0E080818F7EB8
:1058F0008083E7EDF0E080818160808384E082BF77
:1059000081E0809381020C94312CE8EDF0E08081FD
:105910008E7F80831092E20008951092DA00109238
:10592000E10008951F920F920FB60F9211242F934A
:105930003F934F935F936F937F938F939F93AF9317
:10594000BF93EF93FF938091E10082FF0BC08091A2
:10595000E20082FF07C08091E1008B7F8093E1002D
:105960000E949D288091DA0080FF19C08091D800A4
:1059700080FF15C08091DA008E7F8093DA008091DD
:10598000D90080FF94C080E189BD82E189BD09B45E
:1059900000FEFDCF81E0809382020E9476288091F4
:1059A000E10080FF19C08091E20080FF15C0809166
:1059B000E2008E7F8093E2008091E200806180931C
:1059C000E2008091D80080628093D80019BC85E005
:1059D000809382020E9493288091E10084FF29C075
:1059E0008091E20084FF25C080E189BD82E189BD0C
:1059F00009B400FEFDCF8091D8008F7D8093D80040
:105A00008091E1008F7E8093E1008091E2008F7EA3
:105A10008093E2008091E20081608093E2008091B7
:105A20007E02882309F449C084E0809382020E94A8
:105A300097288091E10083FF29C08091E20083FFD5
:105A400025C08091E100877F8093E10082E0809310
:105A5000820210927E028091E1008E7F8093E100AD
:105A60008091E2008E7F8093E2008091E20080616D
:105A70008093E20042E060E080E00E94952B8091FC
:105A8000F00088608093F0000E948F28FF91EF91D2
:105A9000BF91AF919F918F917F916F915F914F9146
:105AA0003F912F910F900FBE0F901F90189519BC2A
:105AB000109282020E94882872CF8091E30087FDB5
:105AC00002C081E0B2CF83E0B0CF1F920F920FB639
:105AD0000F9211242F933F934F935F936F937F9374
